:100000000C942A000C9447000C9447000C94470071
:100010000C9447000C9447000C9447000C94470044
:100020000C9447000C9447000C9447000C94470034
:100030000C9447000C9447000C9447000C94470024
:100040000C9447000C9447000C9447000C94470014
:100050000C94470011241FBECFE5D8E0DEBFCDBF12
:1000600013E0A0E6B0E0EEE9FDE102C005900D92DC
:10007000A031B107D9F713E0A0E1B3E001C01D92B0
:10008000AC31B107E1F70E948C070C94CD0E0C94B3
:10009000000095E098BB82BB8FE99FE00197F1F7E4
:1000A00000C0000081E088BB8FE99FE00197F1F775
:1000B00000C00000089594E098BB82BB8FE99FE0E8
:1000C0000197F1F700C0000018BA8FE99FE001978F
:1000D000F1F700C00000089588E30E945B0081E012
:1000E0000E945B0086E00E945B008EE00C945B0047
:1000F000CF93DF93EC018991882319F00E94490086
:10010000FACFDF91CF910895CF93DF93462F50E040
:1001100066EA70E00E94740EC6EAD0E089918823F6
:1001200019F00E944900FACFDF91CF910895982FDE
:10013000862F923059F018F4913031F008959330B1
:1001400039F0943039F00895815805C0815403C0C6
:100150008D5601C08D520C945B0011B882E080B9BD
:10016000089584EA86BF06B607FEFDCF81B1887F79
:10017000089584EA86BF06B607FEFDCF81B1887F69
:10018000089583B984E886BF06B607FEFDCF81B126
:10019000887F089583B984E886BF06B607FEFDCF41
:1001A00081B1887F089534E8FC012191CF01222399
:1001B00051F023B936BF06B607FEFDCF21B1287F27
:1001C0002832E1F7F1CF81B1887F089584EC86BFB2
:1001D00006B607FEFDCF83B1089584E886BF06B654
:1001E00007FEFDCF83B10895CF93DF93262FFB0148
:1001F00034EC9E2F921B981758F436BF06B607FEB4
:10020000FDCF93B1919391B1987F9035E1F7F1CF04
:10021000EB01C80FD11D0E94ED001882DF91CF9134
:10022000089584E986BF06B604FCFDCF08950E94B8
:10023000B10080ED0E94C10080E00E94CA000E94CF
:10024000B90081ED0E94C1000C94ED000E94B10044
:1002500080ED0E94C10081E00E94CA000E94B900A6
:1002600081ED0E94C1000C94ED000E94B10080ED70
:100270000E94C10082E00E94CA000E94B90081ED84
:100280000E94C1000C94ED000E94B10080ED0E941C
:10029000C10083E00E94CA000E94B90081ED0E9463
:1002A000C1000C94ED000E94B10080ED0E94C100DD
:1002B00084E00E94CA000E94B90081ED0E94C10042
:1002C0000C94ED000E94B10080ED0E94C10085E019
:1002D0000E94CA000E94B90081ED0E94C1000C94E6
:1002E000ED000E94B10080ED0E94C10086E00E94F6
:1002F000CA000E94B90081ED0E94C1000C94ED007B
:100300006AE00E941E0D20E1829F900D1124892F2A
:100310000895CF93C82F0E94B10080ED0E94C100C4
:1003200080E00E94CA008C2F0E9480010E94CA00B7
:10033000CF910C941101CF93C82F0E94B10080ED92
:100340000E94C10081E00E94CA008C2F0E9480019F
:100350000E94CA00CF910C9411010F931F93CF9369
:10036000DF931F92CDB7DEB7182F042F69830E9449
:10037000B10080ED0E94C10082E00E94CA00698144
:10038000812F613049F40E94800190E2099FA00111
:1003900011244064842B02C00E9480010E94CA0084
:1003A0000F90DF91CF911F910F910C941101CF937A
:1003B000C82F0E94B10080ED0E94C10083E00E941E
:1003C000CA008C2F0E9480010E94CA00CF910C9419
:1003D0001101CF93C82F0E94B10080ED0E94C1008F
:1003E00084E00E94CA008C2F0E9480010E94CA00F3
:1003F000CF910C941101CF93C82F0E94B10080EDD2
:100400000E94C10085E00E94CA008C2F0E948001DA
:100410000E94CA00CF910C941101CF93C82F0E9463
:10042000B10080ED0E94C10086E00E94CA008C2FBE
:100430000E9480010E94CA00CF910C941101982F54
:1004400092959F708F702AE0929F800D11240895DD
:100450000F931F93CF93DF93CDB7DEB72E970FB6D1
:10046000F894DEBF0FBECDBF8EE0E8E6F0E0DE011F
:10047000119601900D928A95E1F70E9435010E9434
:100480001F0280931A030E9426010E941F0280937C
:1004900018030E9417010E941F02809310030E94FC
:1004A00044010E941F02082F10E00E9453010E9485
:1004B0001F0280931B030E9462010E941F0280930F
:1004C00015030E9471010E941F02809319038091FD
:1004D0001B038A3080F482E80E945B008AEA90E085
:1004E0000E94780083E80E945B0080911B036AE011
:1004F00090E00E94840080911B038A3048F082E8DB
:100500000E945B0080911B036AE090E00E948400DF
:10051000809115038A3080F485E80E945B008AEAA6
:1005200090E00E94780086E80E945B0080911503AD
:100530006AE090E00E948400809115038A3048F0C0
:1005400085E80E945B00809115036AE090E00E94BC
:100550008400809119038A3080F488E80E945B004F
:100560008AEA90E00E94780089E80E945B0080910E
:1005700019036AE090E00E948400809119038A3098
:1005800048F088E80E945B00809119036AE090E0DF
:100590000E9484008CE80E945B00F8013197EE0F06
:1005A000FF1F81E090E08C0F9D1FE80FF91F8081F5
:1005B000918199270E94780080911A038A3080F4F3
:1005C00082EC0E945B008AEA90E00E94780083EC53
:1005D0000E945B0080911A036AE090E00E94840010
:1005E00080911A038A3048F082EC0E945B0080916F
:1005F0001A036AE090E00E948400809118038A3018
:1006000080F485EC0E945B008AEA90E00E9478000A
:1006100086EC0E945B00809118036AE090E00E94E3
:100620008400809118038A3048F085EC0E945B00BA
:10063000809118036AE090E00E948400809110038A
:100640008A3080F488EC0E945B008AEA90E00E9485
:10065000780089EC0E945B00809110036AE090E0D2
:100660000E948400809110038A3048F088EC0E9438
:100670005B00809110036AE090E00E94840084E8AF
:100680000E945B008CEA90E00E94780087E80E945C
:100690005B008CEA90E00E94780084EC0E945B0092
:1006A0008EEA90E00E94780087EC0E945B008EEA60
:1006B00090E02E960FB6F894DEBF0FBECDBFDF914F
:1006C000CF911F910F910C94780016B880E287B9F2
:1006D00080E888B986E886B9089582EE87B9369AA7
:1006E0003699FECF85B10895CF93DF93C82FD62FCB
:1006F0000E946D0328E1829FC00111246FEF70E01A
:100700000E943E0D60931603683139F16A3098F407
:100710006D2F8C2F0E9497008AEA90E00E9478004B
:1007200061E06D0F8C2F0E949700809116036AE0A4
:1007300090E00E948400809116038A3050F06D2F63
:100740008C2F0E949700809116036AE090E00E942F
:1007500084008091160390E002C087E190E0DF9171
:10076000CF910895CF93DF93C82FD62F0E946D03AA
:100770002CE3829FC00111246FEF70E00E943E0DB8
:10078000609316036D2F8C2F0E94970080911603A3
:100790008C3338F58A3098F46D2F8C2F0E94970097
:1007A0008AEA90E00E94780061E06D0F8C2F0E9431
:1007B0009700809116036AE090E00E948400809187
:1007C00016038A3050F06D2F8C2F0E949700809175
:1007D00016036AE090E00E9484008091160390E086
:1007E00002C08BE390E0DF91CF910895CF93DF9328
:1007F000C82FD62F0E946D0324E6829FC0011124CA
:100800006FEF70E00E943E0D60931603643639F17D
:100810006A3098F46D2F8C2F0E9497008AEA90E03E
:100820000E94780061E06D0F8C2F0E9497008091EC
:1008300016036AE090E00E948400809116038A30DB
:1008400050F06D2F8C2F0E949700809116036AE064
:1008500090E00E9484008091160390E002C083E63D
:1008600090E0DF91CF910895CF93DF93C82FD62FDB
:100870000E946D032FE1829FC00111246FEF70E091
:100880000E943E0D609316036A30C0F4611103C0EC
:1008900081E0809316036D2F8C2F0E9497008AEAC7
:1008A00090E00E94780061E06D0F8C2F0E9497000D
:1008B000809116036AE090E00E9484008091160304
:1008C0008A3050F06D2F8C2F0E9497008091160374
:1008D0006AE090E00E9484008091160390E0DF912E
:1008E000CF910895CF93DF93C82FD62F0E946D0329
:1008F0002CE0829FC00111246FEF70E00E943E0D3A
:10090000609316036C3059F16A30A8F46D2F8C2F68
:100910000E9497008AEA90E00E94780061E06D0FE3
:100920008C2F0E94970020911603822F90E06AE09E
:1009300001960E948400809116038A3058F06D2F32
:100940008C2F0E9497008091160390E06AE0019638
:100950000E9484008091160390E0019602C08CE012
:1009600090E0DF91CF9108950F931F93CF93DF9382
:1009700081E00E945B0080E80E945B008CEC90E0CC
:100980000E94780080EC0E945B0040E061E082E021
:100990000E94B2038C0189B38093170380FF0BC0C0
:1009A00081E00E945B00B80180E090E00E949B0E15
:1009B000C1E0D0E065C081FFE8CF81E00E945B002C
:1009C00080E090E067C021FF38C081E00E945B00BA
:1009D00080E80E945B008CED90E00E9478006AE065
:1009E000CE010E94840080EC0E945B008BEE90E0C0
:1009F0000E9478008AEC0E945B006AE0CE010E94AF
:100A000084008EEC0E945B006AE0C8010E948400B2
:100A100089B38093170340E061E082E00E94740391
:100A200080931A038091170380FF31C080E80E94F1
:100A30005B008CEF90E00E94780089B380931703ED
:100A400040E064E082E00E94B203809318032091AA
:100A5000170320FFB8CF20911A03BC01772784E643
:100A6000289F600D711D1124CE01880F991F0E94CF
:100A70009B0E88EC0E945B0081E00E945B00219647
:100A8000CE010197801791070CF4A2CF03C081FF1C
:100A9000BFCF93CFDF91CF911F910F910895EF9228
:100AA000FF920F931F93CF93DF9381E00E945B002F
:100AB00080E80E945B008CEC90E00E94780080EC63
:100AC0000E945B0040E061E082E00E94B203EC0122
:100AD00089B38093170380FF0DC081E00E945B0003
:100AE000BE018AEA90E00E949B0E0CEA10E0E12C25
:100AF000F12C64C081FFE6CF81E00E945B0080E0C2
:100B000090E066C021FF38C081E00E945B0080E871
:100B10000E945B008BE091E00E9478006AE0C701D0
:100B20000E94840080EC0E945B008BEE90E00E94AB
:100B300078008AEC0E945B006AE0C7010E94840092
:100B40008EEC0E945B006AE0CE010E94840089B3B3
:100B50008093170340E061E082E00E947403809379
:100B60001A038091170380FF30C080E80E945B0069
:100B70008AE191E00E94780089B38093170340E0F6
:100B800064E082E00E94B20380931803209117036F
:100B900020FFB8CF20911A03BC01772784E6289F55
:100BA000600D711D1124C8010E949B0E88EC0E94EB
:100BB0005B0081E00E945B000E5F1F4FEC16FD069C
:100BC0003CF48FEFE81AF80AA2CF81FFC0CF94CF90
:100BD000DF91CF911F910F91FF90EF900895EF92C9
:100BE000FF920F931F93CF93DF9381E00E945B00EE
:100BF00080E80E945B0089E291E00E94780080EC2E
:100C00000E945B0040E061E082E00E94B203EC01E0
:100C100089B38093170380FF0DC081E00E945B00C1
:100C2000BE0184E591E00E949B0E06E511E0E12CF7
:100C3000F12C64C081FFE6CF81E00E945B0080E080
:100C400090E066C021FF38C081E00E945B0080E830
:100C50000E945B0088E391E00E9478006AE0C7018F
:100C60000E94840080EC0E945B008BEE90E00E946A
:100C700078008AEC0E945B006AE0C7010E94840051
:100C80008EEC0E945B006AE0CE010E94840089B372
:100C90008093170340E061E082E00E947403809338
:100CA0001A038091170380FF30C080E80E945B0028
:100CB00087E491E00E94780089B38093170340E0B5
:100CC00064E082E00E94B20380931803209117032E
:100CD00020FFB8CF20911A03BC01772784E6289F14
:100CE000600D711D1124C8010E949B0E88EC0E94AA
:100CF0005B0081E00E945B000E5F1F4FEC16FD065B
:100D00003CF48FEFE81AF80AA2CF81FFC0CF94CF4E
:100D1000DF91CF911F910F91FF90EF900895AF92C7
:100D2000BF92CF92DF92EF92FF920F931F93CF93D8
:100D3000DF9380E090E00E94950E7C01C0E0D0E05F
:100D400044E6C42ED12C56E0B52E63E0A62E0E94B8
:100D500028028DEC0E945B0086E591E00E947800FD
:100D60008E010F5F1F4FC801880F991F0E94950EBB
:100D700020911A0330E0B6010E942A0D261737078A
:100D800091F42091180330E02817390761F4B5BABF
:100D90002FEF89E698E1215080409040E1F700C0B4
:100DA0000000A5BAE801EC16FD063CF089B380937B
:100DB000170383FD02C0807351F2DF91CF911F9121
:100DC0000F91FF90EF90DF90CF90BF90AF9008957C
:100DD000CF92DF92EF92FF920F931F93CF93DF9307
:100DE0008AEA90E00E94950E8C01C0E0D0E0E4E633
:100DF000EE2EF12CF6E0DF2EA3E0CA2E0E94280290
:100E00008DEC0E945B0089E591E00E947800CE01A4
:100E10008A5A9F4F880F991F0E94950E20911A039E
:100E200030E0B7010E942A0D2617370791F4209170
:100E3000180330E02817390761F4D5BA2FEF89E697
:100E400098E1215080409040E1F700C00000C5BA11
:100E500021960C171D072CF089B380931703887215
:100E600069F2DF91CF911F910F91FF90EF90DF908A
:100E7000CF900895CF92DF92EF92FF920F931F933E
:100E8000CF93DF9384E591E00E94950E8C01C0E042
:100E9000D0E084E6E82EF12C96E0D92E23E0C22E95
:100EA0000E9428028DEC0E945B008CE591E00E947C
:100EB0007800CE0185559F4F880F991F0E94950E8F
:100EC00020911A0330E0B7010E942A0D2617370738
:100ED00091F42091180330E02817390761F4D5BA4E
:100EE0002FEF89E698E1215080409040E1F700C063
:100EF0000000C5BA21960C171D072CF089B380930A
:100F00001703887169F2DF91CF911F910F91FF90C4
:100F1000EF90DF90CF900895CF93DF93CDB7DEB7FA
:100F2000E6970FB6F894DEBF0FBECDBF88E1E6E7C7
:100F3000F0E0DE01599601900D928A95E1F788E183
:100F4000EEE8F0E0DE01119601900D928A95E1F74E
:100F50000E9465039FEF91BB87E087BB84B38C6FD2
:100F600084BB8AB31ABA8BB39BBB85E886B90E944F
:100F7000AD000E946C0080E80E945B008FE591E06C
:100F80000E94780080EC0E945B0080EC0E945B0075
:100F900080E791E00E9478002FEF81EE94E02150ED
:100FA00080409040E1F700C0000081E00E945B00BB
:100FB000612C712C04E610E089B38093170383FF42
:100FC00025C581E00E945B0080E80E945B0081E80B
:100FD00091E00E94780089B3809317030E946D030B
:100FE000E82E80EC0E945B00F12CC70101974E9720
:100FF00038F482E991E00E94780044244394512C13
:10100000C7014F974E9738F483EA91E00E94780029
:10101000E2E04E2E512CC701CD974E9738F484EB69
:1010200091E00E94780073E0472E512C2BE5E21AE4
:10103000F10885EAE816F10438F485EC91E00E94A5
:10104000780064E0462E512C8091170381FF06C082
:1010500081E00E945B00412C512CAECF80FFBBCFC2
:1010600081E00E945B0080EC0E945B0091E04916E9
:10107000510409F0EBC080E80E945B0086ED91E02E
:101080000E94780080EC0E945B0086EE91E00E9456
:10109000780089B38093170340E061E082E00E940A
:1010A0007403E82E8091170380FD03C081FFF1CF08
:1010B00088CF80E80E945B0087EF91E00E94780073
:1010C00089B38093170340E064E082E00E94B2039A
:1010D000F82E8091170380FD06C081FFF1CF81E0DB
:1010E0000E945B00C8CF80E80E945B0087E092E02E
:1010F0000E94780089B38093170340E067E082E0A4
:101100000E94B203D82E9091170390FD03C091FF67
:10111000F1CFE5CF40E060E08E2D0E94AD018F2D34
:101120000E949B018D2D0E94890180E80E945B0036
:1011300087E192E00E94780080EC0E945B0086EEDE
:1011400091E00E94780089B38093170340E061E04A
:1011500082E00E9434047C0190911703892F8270F1
:1011600090FD03C0882379F3BACF81112ACF80E89C
:101170000E945B0089E292E00E94780089B380932C
:10118000170340E064E082E00E9472046C018091E9
:10119000170380FD06C081FFF1CF81E00E945B0054
:1011A000C4CF80E80E945B008CE392E00E9478004C
:1011B00089B38093170340E067E082E00E94F60362
:1011C0005C018091170380FD03C081FFF1CFE5CF63
:1011D0008E2D0E94E9018C2D0E94FB018A2D0E9418
:1011E0000D02F6013197C50183709927EE0FFF1F9D
:1011F000892B49F481E090E08C0F9D1FE80FF91FC7
:10120000208D318D08C081E090E08C0F9D1FE80F8C
:10121000F91F208131812E0D3F1D2A0D3B1DB7FE88
:1012200003C093E0A90EB11CC501959587959595CE
:101230008795820F931F069667E070E00E943E0D2F
:101240008F5F0E94D701412C512CBECE22E0421666
:10125000510409F03FC181E00E945B0080E80E94D8
:101260005B0089E492E00E94780080EC0E945B00C1
:101270000E946D0390E029B3209317038E319105EE
:1012800044F48AE592E00E94780066246394712C0D
:1012900009C04E9739F08AE692E00E947800A2E0F9
:1012A0006A2E712C8091170380FD03C081FFDDCF72
:1012B00088CE82E06816710431F481E00E945B0000
:1012C0000E94B40481CE91E06916710419F0612C7A
:1012D000712CB9CF80E090E00E94950E5C0180EC0B
:1012E0000E945B008BEE90E00E947800C5010197A0
:1012F0009AAB89AB0E946D03682F70E080E090E0AC
:101300000E94850D29EB38EB48EB5DE30E94E90D67
:101310000E94520D7B0177FF02C0E12CF12CEA14F0
:10132000FB0414F0E9A8FAA8E214F30439F080EC05
:101330000E945B008AE792E00E94780080E80E94A9
:101340005B0086E892E00E94780047019FEF891ACF
:10135000990A6AE0C4010E9484008FE80E945B0041
:1013600085EB92E00E9478006401CC0CDD1CC60184
:101370000E94950E883E934088F480EC0E945B00AA
:101380008AEA90E00E947800C6010E94950EB8019A
:101390000E942A0DCB016AE00E948400C6010E94CF
:1013A000950E883E934068F080EC0E945B00C60179
:1013B0000E94950EB8010E942A0DCB016AE00E949E
:1013C0008400C6010E94950EB8010E942A0D0A975A
:1013D00080F483EC0E945B008AEA90E00E9478002F
:1013E000C6010E94950EB8010E942A0D6AE00E9473
:1013F0008400C6010E94950EB8010E942A0D0A972A
:1014000060F083EC0E945B00C6010E94950EB8015B
:101410000E942A0D6AE00E94840089E0E816F10427
:101420000CF006C38AEC0E945B006AE0C4010E94D3
:1014300084008EEC0E945B006AE0C5010E9484007B
:1014400089B38093170380FF40C080EC0E945B004B
:1014500085E992E00E94780089B38093170340E009
:1014600061E082E00E9474034C018091170380FDCB
:1014700008C081FFF1CF81E00E945B00710117017C
:1014800039CF89B38093170340E064E082E00E9483
:10149000B2032091170320FD06C021FFF2CF81E0A7
:1014A0000E945B00D9CF24E6289DB001299D700DD4
:1014B0001124680F791FC6010E949B0E80EC0E94C8
:1014C0005B0086EA92E00E9478008091170381FF1A
:1014D000D6CF77CD83E04816510409F044C181E0AE
:1014E0000E945B0080E80E945B0087EB92E00E9414
:1014F000780080EC0E945B000E946D0390E029B3AD
:10150000209317038E31910544F48AE592E00E94FE
:10151000780066246394712C09C04E9739F08AE6EE
:1015200092E00E94780072E0672E712C8091170380
:1015300080FD03C081FFDDCF44CD92E069167104C8
:1015400031F481E00E945B000E944F053DCD21E017
:101550006216710409F0BBCE8AEA90E00E94950EF3
:101560005C0180EC0E945B008BEE90E00E947800B2
:10157000C50101979AAB89AB0E946D03682F70E09B
:1015800080E090E00E94850D29EB38EB48EB5DE3AD
:101590000E94E90D0E94520D6B0177FF02C0C12C21
:1015A000D12CCA14DB0414F0C9A8DAA88BA99CA911
:1015B000C816D90639F080EC0E945B008AE792E0F9
:1015C0000E94780080E80E945B0088EC92E00E9414
:1015D000780046019FEF891A990A6AE0C4010E94C7
:1015E00084008FE80E945B0085EB92E00E94780007
:1015F000760126E5E20EF11CEE0CFF1CC7010E94ED
:10160000950E883E934088F480EC0E945B008AEA45
:1016100090E00E947800C7010E94950EB8010E94D8
:101620002A0DCB016AE00E948400C7010E94950E3A
:10163000883E934068F080EC0E945B00C7010E94E6
:10164000950EB8010E942A0DCB016AE00E94840029
:10165000C7010E94950EB8010E942A0D0A9780F4D6
:1016600083EC0E945B008AEA90E00E947800C70148
:101670000E94950EB8010E942A0D6AE00E94840023
:10168000C7010E94950EB8010E942A0D0A9760F0CA
:1016900083EC0E945B00C7010E94950EB8010E9476
:1016A0002A0D6AE00E94840089E0C816D1040CF07B
:1016B000C1C18AEC0E945B006AE0C4010E94840000
:1016C0008EEC0E945B006AE0C5010E94840089B331
:1016D0008093170380FF42C080EC0E945B0085E985
:1016E00092E00E94780089B38093170340E061E0A4
:1016F00082E00E9474034C018091170380FD0AC0B0
:1017000081FFF1CF81E00E945B00CBA8DCA8DCAABE
:10171000CBAA32CF89B38093170340E064E082E024
:101720000E94B2032091170320FD06C021FFF2CFD3
:1017300081E00E945B00D7CF24E6289DB001299D5F
:10174000700D1124680F791FC7010E949B0E80EC59
:101750000E945B0086EA92E00E9478008091170365
:1017600081FFD5CF2ECC84E04816510409F044C146
:1017700081E00E945B0080E80E945B0087ED92E0C0
:101780000E94780080EC0E945B000E946D0390E054
:1017900029B3209317038E31910544F48AE592E032
:1017A0000E94780066246394712C09C04E9739F02A
:1017B0008AE692E00E94780042E0642E712C8091CB
:1017C000170380FD03C081FFDDCFFBCB92E06916DC
:1017D000710431F481E00E945B000E94EF05F4CBBC
:1017E00021E06216710409F072CD84E591E00E9457
:1017F000950E5C0180EC0E945B008BEE90E00E94F5
:101800007800C50101979AAB89AB0E946D03682FE0
:1018100070E080E090E00E94850D29EB38EB48EB0A
:101820005DE30E94E90D0E94520D6B0177FF02C03B
:10183000C12CD12CCA14DB0414F0C9A8DAA88DA9D4
:101840009EA9C816D90639F080EC0E945B008AE791
:1018500092E00E94780080E80E945B0088EE92E0AF
:101860000E94780046019FEF891A990A6AE0C40134
:101870000E9484008FE80E945B0085EB92E00E944A
:10188000780076012BEAE20EF11CEE0CFF1CC7017A
:101890000E94950E883E934088F480EC0E945B0085
:1018A0008AEA90E00E947800C7010E94950EB80174
:1018B0000E942A0DCB016AE00E948400C7010E94A9
:1018C000950E883E934068F080EC0E945B00C70153
:1018D0000E94950EB8010E942A0DCB016AE00E9479
:1018E0008400C7010E94950EB8010E942A0D0A9734
:1018F00080F483EC0E945B008AEA90E00E9478000A
:10190000C7010E94950EB8010E942A0D6AE00E944C
:101910008400C7010E94950EB8010E942A0D0A9703
:1019200060F083EC0E945B00C7010E94950EB80135
:101930000E942A0D6AE00E94840089E0C816D10442
:101940000CF07AC08AEC0E945B006AE0C4010E943D
:1019500084008EEC0E945B006AE0C5010E94840056
:1019600089B38093170380FF42C080EC0E945B0024
:1019700085E992E00E94780089B38093170340E0E4
:1019800061E082E00E9474034C018091170380FDA6
:101990000AC081FFF1CF81E00E945B00CDA8DEA8E4
:1019A000DEAACDAA32CF89B38093170340E064E06A
:1019B00082E00E94B2032091170320FD06C021FFA0
:1019C000F2CF81E00E945B00D7CF24E6289DB001D2
:1019D000299D700D1124680F791FC7010E949B0E6D
:1019E00080EC0E945B0086EA92E00E947800809181
:1019F000170381FFD5CFE5CA81E00E945B0080918B
:101A0000170381FFE8CA81E00E945B008091170301
:101A100084FD0E94E8068091170385FD0E943A0725
:101A200080911703807309F0C7CA0E948F06C4CA49
:101A300089ECF9CC89EC3ECE89EC85CF991B79E015
:101A400004C0991F961708F0961B881F7A95C9F74E
:101A500080950895AA1BBB1B51E107C0AA1FBB1F9D
:101A6000A617B70710F0A61BB70B881F991F5A952A
:101A7000A9F780959095BC01CD01089597FB072E9D
:101A800016F4009407D077FD09D00E942A0D07FCB8
:101A900005D03EF4909581959F4F0895709561957E
:101AA0007F4F089504D06894B1118DC0089570D00F
:101AB00088F09F5790F0B92F9927B751A0F0D1F037
:101AC000660F771F881F991F1AF0BA95C9F712C0C1
:101AD000B13081F077D0B1E0089574C0672F782FCE
:101AE0008827B85F39F0B93FCCF38695779567952D
:101AF000B395D9F73EF490958095709561957F4F99
:101B00008F4F9F4F0895E89409C097FB3EF490953E
:101B10008095709561957F4F8F4F9F4F9923A9F0C6
:101B2000F92F96E9BB279395F69587957795679555
:101B3000B795F111F8CFFAF4BB0F11F460FF1BC099
:101B40006F5F7F4F8F4F9F4F16C0882311F096E92C
:101B500011C0772321F09EE8872F762F05C06623DA
:101B600071F096E8862F70E060E02AF09A95660F93
:101B7000771F881FDAF7880F9695879597F908954C
:101B800057FD9058440F551F59F05F3F71F047952E
:101B9000880F97FB991F61F09F3F79F08795089513
:101BA000121613061406551FF2CF4695F1DF08C032
:101BB000161617061806991FF1CF8695710561054F
:101BC00008940895E894BB2766277727CB0197F9F7
:101BD00008950BD078C069D028F06ED018F0952306
:101BE00009F05AC05FC01124EECFCADFA0F3959F61
:101BF000D1F3950F50E0551F629FF001729FBB27F4
:101C0000F00DB11D639FAA27F00DB11DAA1F649F9F
:101C10006627B00DA11D661F829F2227B00DA11D52
:101C2000621F739FB00DA11D621F839FA00D611DD8
:101C3000221F749F3327A00D611D231F849F600DF9
:101C4000211D822F762F6A2F11249F5750408AF032
:101C5000E1F088234AF0EE0FFF1FBB1F661F771FBE
:101C6000881F91505040A9F79E3F510570F014C055
:101C7000AACF5F3FECF3983EDCF3869577956795A6
:101C8000B795F795E7959F5FC1F7FE2B880F911DDC
:101C90009695879597F9089597F99F6780E870E082
:101CA00060E008959FEF80EC089500240A941616D2
:101CB000170618060906089500240A94121613063A
:101CC000140605060895092E0394000C11F48823C8
:101CD00052F0BB0F40F4BF2B11F460FF04C06F5FE4
:101CE0007F4F8F4F9F4F0895FB019F01E894423033
:101CF000C4F04532B4F44A3029F497FB1EF49095B1
:101D000081959F4F642F77270E942A0D805D8A332B
:101D10000CF0895D8193CB010097A1F716F45DE289
:101D200051931082C9010C94A00EA8E1B0E042E0EA
:101D300050E00C94B20E0E94C00E272F0C94C10EDE
:101D4000DC01FC01672F71917723E1F7329704C022
:101D50007C916D9370836291AE17BF07C8F30895AD
:101D6000DC01CB01FC01E199FECF06C0FFBBEEBB5D
:101D7000E09A31960DB20D9241505040B8F7089557
:101D8000262FE199FECF9FBB8EBB2DBB0FB6F894DB
:0E1D9000E29AE19A0FBE01960895F894FFCFF3
:101D9E00F702000309030C03B000B400B800BC0046
:101DAE00C000C400C800FFFF0200030006000100CF
:101DBE0004000600020005000000030005000000FC
:101DCE0003000300060001000400060002000500E7
:101DDE000000030005003030303030002F003A0094
:101DEE0053554E004D4F4E00545545005745440037
:101DFE005448550046524900534154004E6F2E2010
:101E0E006F662074696D696E67733F004852533A6E
:101E1E006D696E202020503020540020203A202062
:101E2E00202020202020206F662020006872733A28
:101E3E004D494E20202050302054004852533A6DC8
:101E4E00696E20202050312054006872733A4D493B
:101E5E004E20202050312054004E6F2E206F6620D1
:101E6E00616C61726D733F004852533A6D696E201A
:101E7E00202050322054006872733A4D494E202073
:101E8E002050322054005030005031005032002D7E
:101E9E002D2D2D2D45584D504C522D2D2D2D2D00C7
:101EAE0020204155544F434C4B2020332E302020C0
:101EBE00004D454E553A2020202020202020202065
:101ECE0020007C204D617374657220436C6F636BD0
:101EDE00203E003C20205030202020436C6F636B4E
:101EEE0020203E003C20205031202020436C6F6388
:101EFE006B20203E003C20205032202020436C6F6F
:101F0E00636B20207C00536574204852533A6D69F0
:101F1E006E3A7365630020203A20203A202020205C
:101F2E0020202020202000536574206872733A4DC3
:101F3E00494E3A73656300536574206872733A6D47
:101F4E00696E3A534543005365742044443A6D6DAF
:101F5E003A79792020202020005365742064643A59
:101F6E004D4D3A7979202020202020005365742091
:101F7E0064643A6D6D3A595900202020503020206B
:101F8E0020436C6F636B202020004D4F444946590F
:101F9E00202020207265736574006D6F6469667908
:101FAE002020202052455345540020203A20202046
:101FBE002020202020004852533A4D494E20202008
:101FCE00503020540020203A202020202020202095
:101FDE002020202020002020202020202020202013
:101FEE00202020202020002020205031202020439F
:101FFE006C6F636B202020004852533A4D494E209F
:10200E002020503120540020202050322020204308
:10201E006C6F636B202020004852533A4D494E207E
:10202E002020503220540020203A20203A20200038
:10203E0020202F20202F202000414D00504D000049
:00000001FF
